:020000040800F2
:10000000280C0020B501000881590008914A000819
:1000100081570008692B0008C16400080000000037
:1000200000000000000000000000000085590008EA
:10003000C72B0008000000008359000887590008FA
:10004000CF010008CF010008CF010008CF01000850
:10005000CF010008CF010008CF010008CF01000840
:10006000CF010008CF010008CF010008CF01000830
:100070006D2B0008792B0008CF010008CF01000884
:10008000852B0008912B0008CF010008CF01000844
:10009000CF010008CF010008CF010008CF01000800
:1000A000CF010008CF010008CF010008755B0008F0
:1000B000CF010008CF010008CF010008CF010008E0
:1000C000CF010008CF010008CF010008CF010008D0
:1000D000CF010008CF0100086D62000879620008B6
:1000E000C92B0008CF010008CF01000800F002F87A
:1000F00000F050F80AA090E8000C82448344AAF172
:100100000107DA4501D100F045F8AFF2090EBAE86F
:100110000F0013F0010F18BFFB1A43F0010318473B
:10012000C0800000E0800000103A24BF78C878C189
:10013000FAD8520724BF30C830C144BF04680C60ED
:10014000704700000023002400250026103A28BF35
:1001500078C1FBD8520728BF30C148BF0B60704739
:10016000662907F01387642900F058800020704743
:100170001FB500F08FFF04000020002106F022FED2
:10018000401C60600020002106F006FEE0601FBDFC
:1001900010B510BD01F044FA1146FFF7E9FF06F073
:1001A00025FC01F095FC03B4FFF7F2FF03BC01F05E
:1001B000B9FC00000948804709480047FEE7FEE710
:1001C000FEE7FEE7FEE7FEE7FEE7FEE7FEE7FEE707
:1001D00004480549054A064B70470000E9590008E4
:1001E000ED00000828060020280C00202808002028
:1001F000280800200FB41CB5074B06AA7B446946AB
:100200000090059800F029FC0020694600F038FCB9
:100210001CBC5DF814FB0000810800002DE9F041D2
:100220000646002410687529314616A510D0AFF394
:100230000080002802DA404213A507E031688A07EF
:1002400001D512A502E0490704D511A5012401E05A
:10025000AFF3008000210A2206F1240709E0B0FB79
:10026000F2FCB0FBF2F302FB1C003030785418466D
:10027000491C0028F3D123462A463046BDE8F04108
:1002800000F07EB9000000002D0000002B000000EF
:10029000200000002DE9F0474FF0000A894604468F
:1002A000C0F820A02046E1688847002876D025289D
:1002B00006D0D4E901219047206A401C2062F1E772
:1002C000E168204600258847C4F81CA006460027A0
:1002D000C4F818A02A2E09D0304606F0B2F938B377
:1002E00004EB8708303EC8F8186019E059F8041B81
:1002F000204604EB87029161E1688847012F06469A
:1003000018D1E069002820DA25F020051DE0D8F892
:10031000180000EB800006EB40003038C8F81800E9
:100320002046E1688847064606F08BF90028EED1A2
:10033000012F0AD02E2E08D12046E16888477F1C65
:100340000646022F45F02005C4DBA069002803DA29
:10035000404245F00105A061E80701D025F01005F5
:10036000B6B1A6F14100192802D8203645F400653F
:100370004A463146204625604D46FFF7F1FE58B10A
:10038000012806D0ED1D25F0070000F1080989E7D6
:1003900004E005F1040985E730468AE7206ABDE8F4
:1003A000F08700000FB400B58DB010A9099000913E
:1003B0000B904FF0FF300A9000200C9006487844D4
:1003C0000690064878446A4607900F9909A800F0FD
:1003D000DFFD0DB05DF814FBEF0B0000070C000013
:1003E000401ECAB210F8011F8A4202D00029F9D17A
:1003F0000020704710B5431C02E010F8011B71B1DA
:100400008107FAD14FF0013202C88C1A8C4314EAEA
:10041000C211F9D0C01A0A0603D0C01E10BDC01AFE
:1004200010BD0A0401D0801E10BD0902FCD0401E80
:1004300010BD10B5203AC0F00B80B1E81850203A3A
:10044000A0E81850B1E81850A0E81850BFF4F5AF74
:100450005FEA027C24BFB1E81850A0E8185044BFFE
:1004600018C918C0BDE810405FEA827C24BF51F86B
:10047000043B40F8043B08BF7047D20728BF31F85F
:10048000023B48BF11F8012B28BF20F8023B48BFB0
:1004900000F8012B70474FF0000200B51346944658
:1004A0009646203922BFA0E80C50A0E80C50B1F1CC
:1004B0002001BFF4F7AF090728BFA0E80C5048BFE0
:1004C0000CC05DF804EB890028BF40F8042B08BF7E
:1004D000704748BF20F8022B11F0804F18BF00F87A
:1004E000012B70474FF0013C50F8042B51F8043BAE
:1004F0009A4221D1A2EB0C03934313EACC1317D1F8
:1005000050F8042B51F8043B9A4215D1A2EB0C038E
:10051000934313EACC130BD150F8042B51F8043B4E
:100520009A4209D1A2EB0C03934313EACC13DBD01C
:100530004FF00000704700BFD01A01BAB1FA81F144
:1005400001F0180122FA01F0CB40C1F12001DBB229
:10055000C0B2C01A2CFA01F3D11A914311EAC311A7
:10056000E6D1704770477047704710B500F096FDB0
:10057000006810BD10B5044600F090FD046010BD89
:100580002DE9F0470D4699469246044600F12408AD
:100590000168880604D5E06921F01001216000E0BF
:1005A0000120A84201DD471B00E00027A1697A195C
:1005B00002EB0900081AA0612078C00602D4204688
:1005C000AFF30080002608E0D4E901211AF8060004
:1005D0009047206A401C761C20624E45F4DB207850
:1005E000C0060AD52046AFF3008006E0D4E9012119
:1005F00030209047206A401C2062381EA7F1010776
:10060000F4DC07E0D4E9012118F805009047206ADE
:10061000401C2062281EA5F10105F3DC2046AFF343
:1006200000802078000602D50220BDE8F087012076
:10063000FBE770472DE9FF4F0C461E464FF0FF3792
:100640008BB0D2E90001DDF860800A908A46C1F3E0
:100650000A5505B93D46002108464FF00000BAF1A1
:10066000000F00F4400005DA00EB80004FF4400179
:1006700001EA50004FEA9059B9F1010F00DDB94687
:100680000A9850EA4A000ED044F61050A5F2FF3501
:1006900045432F14B8F1000F1ED07542291E1EDDF0
:1006A000C9F100021CE0B8F1010F4FF0000001D0C9
:1006B000302103E0F24305E02154401CB042FBDB53
:1006C00030460022002121540B99C1F80880C1E96D
:1006D00000200FB0BDE8F08FBD1B6D1CDEE74A4661
:1006E00000DA694206A800F025FF06AB93E8070090
:1006F00003AB83E8070050460A9901F01AFA8DE827
:100700000700A0F500501F3800900398002D0ADD67
:1007100042F21F014A460844002303A90390684699
:1007200001F0C6FC09E0A0F500504A461F3800233E
:1007300003A90390684601F0E5FC8DE8070000047A
:10074000000C03D04FF0FF30410800E01046B8F134
:10075000000F03D00022009215461EE0751E05D43E
:1007600000F0A0FC303262556D1EF9D5B34601226F
:10077000084302D000227F1C04E02078302801D1F9
:1007800000227F1E002A099784D01DE0112D07DA70
:1007900000F088FC303262556D1C50EA0102F5D140
:1007A000084302D00098C8B10EE00021681E05E0A1
:1007B000235C625C63542254401E491C8142F7DB77
:1007C000AB46A81B401E0990002004F80B000B98B4
:1007D000099AC0F80880C0E9002B7AE711264FF08B
:1007E000000857E72DE9F04F88460446D21D22F055
:1007F000070191B0D1E90001CDE90A0105F061FEE0
:1008000002460B98C00F01D02D2007E02068810719
:1008100001D52B2002E0202101EAC000032A099023
:1008200001D0072A05DB03464146204600F088FC3C
:100830000BE12078800601D5E06900E00620B8F1E0
:10084000650F814606D0B8F1660F18D0B8F1670F72
:1008500070D131E00020B9F1110F009001DB1123BC
:1008600001E009F101030AAA01A90CA8FFF7E2FEC1
:10087000DDE90C70002609F10105834647E00120FF
:100880004B4600904FF000470AAA01A90CA8FFF7B9
:10089000D1FEDDE90DB00C995D46002610B909F1D5
:1008A00001000D18B9EB050003D4C0F1FF3609F1C2
:1008B0000105A5EB09002BE0B9F1010F01DA4FF0BA
:1008C00001090020B9F1110F0090484601DD112304
:1008D00000E003460AAA01A90CA8FFF7ABFEDDE978
:1008E0000C704D4600268346207800070AD4AB459D
:1008F00000DA5D4601A8012D04DD411911F8011C43
:10090000302907D04F4502DA17F1040F04DA01202D
:1009100082460FE06D1EEEE7002F02DCED1B3E4429
:1009200003E0781CA84200DD7D1CB81B00F1010A21
:100930004FF000472078000703D4AA4501DB4FF0B1
:10094000FF3A0021B7F1004F0DF143088DF8431035
:1009500024D002202B23002F01DA7F422D230A21ED
:10096000021EA0F1010000DC5FB197FBF1FC97FBD8
:10097000F1F201FB1C7C17460CF1300C08F801CD9C
:10098000EEE7A8F1010003702188090501D5452192
:1009900000E06521A0F1010800F8011C09980FA9E9
:1009A000A1EB0807FF1D00B10120411901EBEA701E
:1009B000A1693844081A401EA0612078C00602D4FC
:1009C0002046AFF30080099828B1D4E9012190476F
:1009D000206A401C20622078C00622D52046AFF352
:1009E00000801EE0002E04DBB34502DD01A8805D1F
:1009F00000E03020D4E901219047206A401C2062A9
:100A0000761CAAF101005FEA000A0AD100F042FB5D
:100A1000C0680168405CD4E901219047206A401C0D
:100A20002062281EA5F10105DCDC07E0D4E90121E4
:100A300018F8010B9047206A401C2062381EA7F16D
:100A40000107F3DC2046AFF30080032011B041E63C
:100A500001694A1C02610878704700B58FB0CDE982
:100A600001310021059105497944CDE90310114672
:100A70006846FFF70FFC0FB000BD0000E5FFFFFF69
:100A80000A6802F8010B0A60704700002DE9FF4F69
:100A900006468BB00878FF2806D0491C2D2805D0C3
:100AA00000244FF0000908E000200CE00124F8E7E2
:100AB00009EB8903491C00EB43090878FF28F7D1AB
:100AC00014B1C9F100008146107800252C46AA46D1
:100AD00029462D2801D02B2804D1521C2D2813D0B3
:100AE000002082468B461078FF280FD04FF0000C74
:100AF0000A21521CA5FB017804FB018105FB0C11A6
:100B0000C5194BEB0104EEE70120EAE70021084696
:100B10004FF00000BAF1000F02D000EB8000400857
:100B2000C0F38157012F01DD4FF0FF370E9955EAD1
:100B3000040009EB01080BD04FF0020918F5FA7F09
:100B400016DA4FEACA70002F706008DD012007E056
:100B50004FEACA70C6E900B00FB0BDE8F08F0020C0
:100B6000306000F09BFAC0F800901821084616E0AB
:100B7000B8F5FA7F18DD002F02DAF748784401E073
:100B8000F6487844D0E90010C6E9001040EACA707F
:100B9000706000F083FAC0F80090142108460FB08E
:100BA000BDE8F04F07F0EFB9002108464FF0000014
:100BB000B8F10001099002DAC7F1000200E03A46FC
:100BC00001DAC8F1000106A800F0B4FC06AB93E816
:100BD000070003AB83E8070044F23E005BEA040130
:100BE0000090584604D144F21E012C465D46009107
:100BF000210C0904014306D10099240444EA154458
:100C00002D041039009104F07F41014306D1009971
:100C1000240244EA15642D020839009104F0704161
:100C2000014306D10099240144EA15742D01091FDE
:100C3000009104F04041014306D10099A40044EA28
:100C40009574AD00891E009104F00041084304D161
:100C500000986D196441401E00904FF001033A4620
:100C60006846B8F1000FCDE9014503A902DD01F0A6
:100C70005EFA01E001F031FABAF1000F04460D46C8
:100C800001D084F00044002108464FF0000009998B
:100C900040F2FF77484010F00C0F07D124F00040DD
:100CA000284303D0C4F30A50B84212D100F0F6F939
:100CB000C0F80090C4F30A50B8420AD1A84878445A
:100CC000D0E90010C6E9001004F00041084370604C
:100CD00042E7C6E900543FE72DE9FF4F1F464FF0BA
:100CE000000A4FF0FF38454691B0D7E90146CDF8EC
:100CF0003CA000F0CFF9C0680168405C1090B96971
:100D000012986D1C8847396A814688470028F6D1B9
:100D1000B9F1FF3F0AD0002E24F4D06411DDB9F1FF
:100D20002B0F08D0B9F12D0F0BD102E0404615B0C2
:100D300013E744F48064B96912986D1C8847761EE5
:100D40008146600504A901D52D2000E02B20002E4E
:100D500001F1010B0DF130088DF810003FDDB9F104
:100D6000690F08D0B9F1490F05D0B9F16E0F02D063
:100D7000B9F14E0F1CD13B4601A8009580E8500206
:100D8000DDE912126FF0020007F08CF9C11CCED120
:100D90000EE0B96912986D1C884781461398761E3B
:100DA00044F4007405600F98401C002E0F9016DD6F
:100DB000B9F1300FEDD0B9F1780F02D0B9F1580F79
:100DC0000DD10F9801280AD13B46CDE90054DDE949
:100DD0001212001F029607F063F9C11CA7D11099E7
:100DE00089453ED144F0800406E01399681CAAF1BD
:100DF000010A44F400740860B9696D1C1298761EEB
:100E0000884730288146F0D02BE01099894505D1DC
:100E1000200603D4761E44F0800418E0484605F00E
:100E200010FC08B3761E0DF123018B4544F40074C9
:100E300008D2A9F130000BF8010B200607D5AAF162
:100E4000010003E0200602D40AF101008246A00559
:100E500002D51399681C0860B96912986D1C8847FF
:100E60008146002ED1DC53E0002E51DDB9F1650F33
:100E700002D0B9F1450F4BD1A00549D5B9696D1C18
:100E80001298761E24F440748847002E81460CDDAB
:100E90002B2804D0B9F12D0F07D144F48074B9691F
:100EA00012986D1C8847761E8146E00501D52D21DC
:100EB00000E02B2108F8011BCDF8008021E0761E10
:100EC0000DF13901884544F400740CD2A9F13000C9
:100ED00010F0FF0088F8000002D10099884509D978
:100EE00008F1010806E0E00501D51E4801E042F2E4
:100EF0000F708246B96912986D1C88478146139815
:100F00000560002E04DD484605F09BFB0028D6D185
:100F1000F96912988847FF2053468BF8000088F83B
:100F2000000000200A900B9004AA0CA90AA8FFF761
:100F3000ADFDA00502D46FF00100F8E614F0240F17
:100F400012D0E0071CD13868DDE90A12031D3B60AE
:100F50000068C0E9001213E0887600007A7600008D
:100F60003E750000F1D8FFFF0AA9684605F0F7FAC0
:100F7000E00705D13868009A011D396000680260F9
:100F80002846D4E602681144137801601846704779
:100F9000D1600549794451610449794411620021C5
:100FA0001161114600F00CB9EDFFFFFF9101000047
:100FB000426842B1016811F8013B23B1521EC0E9F9
:100FC0000012184670470121C160881E70474268B0
:100FD0005AB1C368016843B983688B4205D0491E82
:100FE000521CC0E90012002070474FF0FF307047DC
:100FF0000FB4002300B589B00CA900910B99CB6008
:10100000214B7B440693214B7B44079304236FF0D1
:101010000042CDE901321E4A7A446B4608920246EC
:10102000002007F03BF809B05DF814FB70B50646E8
:101030004FF0FF3015460C46324686B00091CDE9A0
:10104000010169460020049004A8FFF7D1FF024681
:101050000498211825B108B1084600E02046286010
:10106000049800280DD0002A02DD0098884208D09C
:101070003246081B69460094CDE9010404A8FFF735
:10108000B7FF06B070BD0000ABFFFFFFC3FFFFFF5F
:101090001301000000487047E40500200048704735
:1010A000C405002030B5B0F10A024FEA900E71F18C
:1010B00000034EEA817EB0EB0E0061EB91014FEA36
:1010C000101E4EEA017E10EB0E0041EB11114FEAAB
:1010D000102E4EEA016E10EB0E0041EB11214FEA8B
:1010E000104E4EEA014E10EB0E0041EB114140183C
:1010F00041F100014FEAD00040EA41704FEAD101CE
:1011000010EB80054FEA810444EA907444EB01043B
:101110006D1944EB0404521BA3414FF0000348BF78
:101120000A3200D530BD401C41F1000130BD10B580
:10113000044600F09BFA0068005D00F0010010BD5D
:101140002DE9F0411F46044603260168072A01F4F1
:10115000006004DB08B116A505E016A503E008B1A0
:1011600015A500E015A521F010002060A069C01EA3
:10117000A0610FB1401EA0612046AFF300804FB1C7
:10118000D4E9012138469047206A401C2062C01CE7
:10119000206206E0206AFAE7D4E9012115F8010B84
:1011A0009047761EF8D22046AFF30080BDE8F0816C
:1011B0004E414E006E616E00494E4600696E6600FB
:1011C0002DE9F34F4FF0000A0C4656468DB0012032
:1011D0000C9001F10C000B9062690B980121904773
:1011E000051E2DD0252D2CD0216A8847C0B16269FB
:1011F0000B9801219047216A88470028F7D162693E
:10120000411E0B98904700E0761CA1690D98884715
:10121000216A88470028F7D1E1690D988847DBE704
:10122000A1690D988847A842074601D1761CD3E7EB
:10123000E1690D9888477F1C02D1BAF1000F6FD089
:101240006CE162690B9800273D46394690472A2891
:1012500004D162690B98012190470125DFF8D08203
:1012600062690B9801219047A0F130010A290AD246
:101270004745E5DC07EB870100EB4107303FDFD452
:1012800045F01005ECE7E90601D46FF000476C2843
:101290000AD04C2814D0682815D06A280DD074289C
:1012A0001CD07A281AD01DE062690B980121904762
:1012B0006C2802D045F0040514E045F002050DE06D
:1012C00045F020050AE062690B98012190476828E3
:1012D00002D045F0080505E045F4006562690B9809
:1012E00001219047C4E9015765283DD019DC5828F1
:1012F0007AD00CDC452837D004DC252826D04128BC
:101300009ED131E046282FD0472899D12CE05B2888
:1013100077D0612828D063287CD0642823D15AE074
:10132000F7E06F2848D008DC66281DD067281BD05E
:10133000692821D06E2816D127E0702845D073285F
:1013400068D0752847D078280DD14DE0A1690D9857
:101350008847252805463FF469AFE1690D9888471D
:101360006D1C3FF46AAFD9E00D9923466A466FF0D1
:10137000010006F093FEC6E045F0400023464FF022
:1013800000026060A80736D43EE0E8077FF447AF6C
:101390002068011D21600068290501D506701BE742
:1013A000290701D5068017E7A90703D5F117C0E97A
:1013B000006111E706600FE745F0400023464FF05B
:1013C00008026060A80716D41EE040F60E0125EA68
:1013D0000100606016E045F0400023464FF00A022D
:1013E0006060A80707D40FE045F040006060A807E0
:1013F00008D5234610220D996FF00100AFF300804D
:1014000081E007E0102223460D996FF00100AFF351
:10141000008078E04FF0000963284F46C8464B46ED
:10142000CB4602D05B2807D039E02079C00601D432
:101430000120A060012732E06269D4F80CB00B985B
:10144000012190475E2807D14FF0010949466269A2
:10145000D4F80CB00B989047216939B900210A469D
:1014600003AB43F82120491C0829FADBD8B32169D2
:1014700049B308F1010862690B98012190475D2882
:10148000F4D1B9F1000F09D0002003A951F82020B0
:10149000D24341F82020401C0828F7DB03AB206929
:1014A000002820794FEA40701ED05B462246CDF8D6
:1014B0000080CDE901970D9900286FF0010020DA36
:1014C000AFF300801FE0C11703AA00EBD1614B11FD
:1014D00021F01F0102EB8302411A136801208840AA
:1014E00003431360C7E719E00D99224600286FF007
:1014F0000100009702DAAFF3008004E0AFF3008050
:1015000001E0AFF3008000280ADA401C06D10C98F5
:1015100020B14FF0FF300FB0BDE8F08F5046FAE732
:10152000E90701D10AF1010A064400200C9053E6B4
:10153000CCCCCC0C2DE9F047814616468AB0354814
:1015400078440DC88DE80D0032487844801C03AC07
:101550000DC884E80D0041F69B300844372190FB0C
:10156000F1F290FBF1F5A5F1800501FB12041B3CA3
:1015700002D56442012000E00020DFF898A08046F8
:101580000027FA44AAF1BE0A0EE0E0070AD032466C
:10159000684607EB470101230AEB810100F0B2FD29
:1015A0008DE8070064107F1C002CEED1194F7F449A
:1015B000AE3F19E0E80715D007EB04100DF1180A4B
:1015C00090E80E008AE80E00C068F04201D1981938
:1015D00008903246012306A903A800F093FD03AB4F
:1015E00083E807006D10641C002DE3D14FF0010368
:1015F00032466946B8F1000F03A802D000F058FD4A
:1016000001E000F07FFDC9E90001C9F808200AB037
:10161000BDE8F0873C6C000000487047C40500201E
:101620007546FFF7F9FFAE4605006946534620F0C0
:101630000700854618B020B5FEF7CAFDBDE820407A
:101640004FF000064FF000074FF000084FF0000B7E
:1016500021F00701AC46ACE8C009ACE8C009ACE831
:10166000C009ACE8C0098D467047000010B5FFF70F
:1016700011FD001D10BD00BF4D5700002DE9FF4FAB
:101680001F464FF03C0987B04FF00042DDE91410CF
:1016900001F10108DDF858A002EA40500390002053
:1016A00005908346054604460490B969461E08988D
:1016B0008847AAF1010A0290BAF1000F3BDD0298B7
:1016C0002E2815D0102100F01FFA00282EDB4FF035
:1016D000010B0599014317D0B9F1000F0BDB4A4606
:1016E000C11700F0FEF905430C43A9F1040905E018
:1016F000012004900BE008B145F0010501200590A0
:10170000049820B9361D02E0049800B1361FB9696B
:10171000089808F101088847BBF1000FAAF1010AF7
:101720000290C9D00999C1F80080C5E702987028D5
:1017300008D0502806D0F96908988847BBF1000FF7
:1017400014D04FE0002002900120BBF1000F049064
:1017500009D0B969089808F101088847AAF1010978
:10176000B9F1000F07DCF969089888476FF00100AC
:101770000BB0BDE8F08F2B2804D02D280CD14FF0F2
:10178000FF300490B969089808F101088847A9F169
:101790000109B9F1000FE6DD411CE4D00A2100F097
:1017A000B3F90028DFDB029908F1010801EB8101A0
:1017B00000EB41000290B969089888470A2100F0BF
:1017C000A3F9099AA9F10109B9F1000FC2F8008043
:1017D00001DD0028E7DAF96908988847049902983A
:1017E00000FB016655EA040004D004F04041090002
:1017F00002D006E0039898E0A40044EA9574AD0096
:10180000B61E04F00041080002D16D196441761E35
:10181000159810F0240F03D04FF00B095C4803E03B
:101820004FF028096FF07D008246564507DAAAEB93
:1018300006018944B9F1410F01DD4FF04109012052
:101840000021A9F1010200F04CF9024628400B46A4
:101850002140084301D0012100E00021501E0291E7
:1018600043F1FF3128402140084301D0012000E02E
:1018700000200299834651EA0B014FD0002108460F
:101880004FF00000039900F4400039B100EB8000F4
:101890004FF4400100EBD07001EA60008015012890
:1018A00002DD4FF0FF3000E013D0401C36D002982C
:1018B00060B3BBF1000F0CD14A460120002100F0BB
:1018C00010F928402140084301D0012000E0002009
:1018D000E0B101204A46002100F003F90346401917
:1018E0000A4661412D1A8C4111D3B9F1400F09DD2F
:1018F000159810F0240F02D0AAF1340603E0AAF1E3
:10190000170600E0761C00254FF0004406E05B1E41
:1019100042F1FF3220EA030521EA0204CAF1010084
:10192000B04206DA1B49039808430190002000905A
:101930000EE0039AC4F3D321E80A0A43164940EAA9
:1019400044500A433146CDE90002684604F06EFE79
:10195000159810F0240F0BD01598C00715D13868D2
:10196000DDE90012031D3B600068C0E900120CE0D5
:1019700002A8694604F0F3FD1598C00705D1386840
:10198000029A011D3960006802604046F0E60000DE
:1019900002FCFFFF0000F07F0000F03F2DE9FF4F49
:1019A00092461D4685B04FF00041DDE9124BDDE95E
:1019B00014727F1E01EA4B50414940F0FF4940EA52
:1019C0000108002122F020004928049102D04E286D
:1019D00028D04CE03BA0012607C88DE80700A96984
:1019E0000698641C88477F1E014606D41DF8060031
:1019F00018B121F0200181420BD0E969069888478F
:101A0000032E34D0082E32D06FF0010009B0BDE8AB
:101A1000F08F761C032E01D0082EE0D1601CCAF88E
:101A20000000DCE7A9690698641C88477F1E2AD459
:101A300020F02000412826D1A9690698641C884717
:101A40007F1E20D420F020004E281CD1A9690698C2
:101A5000641C88477F1E48F4002849F48009CAF8AE
:101A6000004001D4282806D0E969069888475FEA33
:101A7000CB7012D022E0A9690698641C88477F1EAB
:101A800001D4002803DAE96906988847BCE72928C9
:101A9000F1D1641CCAF80040E9E71BF0240F07D01D
:101AA00028680499031D2B600068C0E9001805E050
:101AB0002868021D2A600068C0F800902046A5E74B
:101AC0000000F07F494E46494E495459000000003D
:101AD00010B50446AFF300802046BDE81040FEF785
:101AE00062BBB2F120030AD5C2F1200301FA02F170
:101AF00020FA03F300FA02F041EA0301704700FA0A
:101B000003F14FF0000070473A2800D2303820F03F
:101B10002002412A01D3A2F13700884201D34FF0BD
:101B2000FF30704701491820ABBEFEE726000200D7
:101B300070475FEA400C08BF91F0000F4FEA8C231A
:101B40004FEAC12243EA51514FEA1C5018BF00F539
:101B5000F0404FEA300018BF41F000415FEA6C5C92
:101B600000F02980BCF1FF3F08BF40F08040704783
:101B7000130C06BF12044FF0100C4FF0000C130EA4
:101B800004BF12020CF1080C130F04BF12010CF178
:101B9000040C930F04BF92000CF1020CD30F04BF8E
:101BA00052000CF1010C11464FF00002A0F11F0091
:101BB000A0EB0C00704711F0004F08BF704731F0E8
:101BC00000413FF4D5AF0B0C06BF09044FF0100CD9
:101BD0004FF0000C0B0E04BF09020CF1080C0B0FA8
:101BE00004BF09010CF1040C8B0F04BF89000CF138
:101BF000020CCB0F04BF49000CF1010CCCF1200307
:101C0000A0EB0C0022FA03F302FA0CF241EA030102
:101C100000F10100704720F07F4C80EA030023F0C0
:101C20007F47ACEB070303F57C5300F0004003F162
:101C3000FF032DE980494FEA154B09B44FEA1443DD
:101C400025EA0B4E24EA03480FF2042606EB13277D
:101C500049083E785FEA320203FB0667C7F50007D2
:101C600007FB06F64FEA54374FEAD64606F102065E
:101C700007FB066CCCF1005C4FEA1C472CEA074CD2
:101C800007FB06F40CFB06F504EB15464FEA961627
:101C900034BF00204FF000404FEAD13706FB07FC6D
:101CA0004FEA1C4C0CFB0BF7D21B03FB0CF761EB50
:101CB00007010CFB0EF7B0EB074072EB17420CFB71
:101CC00008F734BFA2EB0742B2EB074261EB1741C2
:101CD0004FEA0C444FEA910706FB07FC4FEA1C4C05
:101CE0000CFB0BF7B0EBC74072EB573203FB0CF762
:101CF00034BFA2EBC742B2EBC74261EB57310CFBDA
:101D00000EF7B0EBC70072EB57720CFB08F734BF4D
:101D1000A2EBC702B2EBC70261EB5771039F4FEA18
:101D2000816141EA921104EBCC044FEAD1374FEACA
:101D3000826206FB07FC42EA90124FEA80604FEA9B
:101D40001C4C0CFB0BF7D21B03FB0CF761EB0701E0
:101D50000CFB0EF7B0EB074072EB17420CFB08F7D9
:101D600034BFA2EB0742B2EB074261EB17414FEAE7
:101D70008C554FEA910704EB9C2406FB07FC4FEAC5
:101D80001C4C0CFB0BF7B0EBC74072EB573203FB5C
:101D90000CF734BFA2EBC742B2EBC74261EB57313D
:101DA0000CFB0EF7B0EBC70072EB57720CFB08F799
:101DB00034BFA2EBC702B2EBC70261EB577115EB60
:101DC0004C254FEA816141EA92114FEA82624FEA63
:101DD000D13742EA901206FB07FC44F100044FEAB7
:101DE00080604FEA1C4C0CFB0BF7D21B03FB0CF77B
:101DF00061EB07010CFB0EF7B0EB074072EB1742EB
:101E00000CFB08F734BFA2EB0742B2EB074261EBD1
:101E1000174115EB1C154FEA813141EA92414FEA17
:101E2000823242EA90424FEA80304FEA0C7644F127
:101E3000000448EA03434EEA0B484FF0000EB2EBB1
:101E4000080C71EB030724BF624639464EEB0E0EB9
:101E50004FF0000B0018524149414BEB0B0BB2EB1A
:101E6000080C71EB03077BF1000B24BF6246394677
:101E70004EEB0E0E4FF0000B0018524149414BEB58
:101E80000B0BB2EB080C71EB03077BF1000B24BFCB
:101E9000624639464EEB0E0E51EA020718BF46F075
:101EA000010616EB0E7655F1000254F1000103D540
:101EB000BDE88901BDE80088BDE88901BDE80048AA
:101EC000B619524141EB0101A3F101037047808033
:101ED0007F7E7D7C7B7A7978777676757473727184
:101EE00071706F6E6E6D6C6C6B6A6A69686867663C
:101EF00066656464636362616160605F5F5E5E5DCE
:101F00005D5C5C5B5B5A5A59595858575756565541
:101F100055555454535352525251515050504F4FA3
:101F20004F4E4E4D4D4D4C4C4C4B4B4B4A4A4A49F3
:101F30004949484848474747474646464545454436
:101F400044444443434343424242424141410000EE
:101F500046EA0646A3F570534FEA164646EA42564D
:101F60004FEAD22242EA415210B54FEAD121A3F101
:101F7000010300F02FF820F0004000F1020C00F007
:101F8000004701EB00501146BCF5006F40EA070026
:101F900000D210BDBAF1000F0AD01CB503B44FF047
:101FA00004004FF004014FF000000FBCBDE81040EA
:101FB0004FF00001BBF1010FB9BF04484FF0FF31F2
:101FC0000348002140EA070010BD00BFFFFFEF7F7C
:101FD0000000F07F002B9C4630D477002BD01CB53E
:101FE0004FEA370703B44FF010004FF01001BAF179
:101FF000000F06D0BCF1000FDCBF40F0080040F03D
:1020000008014FF000000FBCBDE810400BF1010BC0
:10201000BBF1010F08BF5FEA170722BF12F10102EF
:1020200011F101014FF0004143F1000300F00040C5
:1020300043EA00007047F9D35708D0E746EA06465E
:1020400013F1400F4FEA16461FDD13F1200FDFBFDB
:1020500016430A46002120335B42BED0C3F120075D
:1020600046EA064602FA07F74FEA164646EA070628
:10207000C3F1200722FA03F201FA07F721FA03F16C
:102080004FF0000342EA0702A7E746EA020646EAE3
:1020900006464FEA164646EA0106BCBF46EA064631
:1020A000360C4FF000034FF000024FF0000194E7B0
:1020B0002DE9804C9A46934670B491E8380007C8E1
:1020C00031EA400C48BF34EA430C03D5FFF7A3FDC7
:1020D000FFF780FFF0BCBDE8008C2DE9804C9A46EC
:1020E000934670B491E8380007C831EA400C48BF05
:1020F00034EA430C03D5FFF78EFDFFF729FFF0BC50
:10210000BDE8008C2DE9804C9A46934670B491E866
:10211000380007C810F0804F08BF13F0804F03D17C
:1021200000F01AF8FFF756FFF0BCBDE8008C2DE96F
:10213000804C9A46934670B491E8380007C810F076
:10214000804F08BF13F0804F03D100F005F8FFF770
:10215000FFFEF0BCBDE8008C20F07F4780EA030062
:1021600023F07F4C07EB0C03A3F57C5300F00040F9
:10217000A3F1FE0392F0000F00F0B38095F0000F82
:1021800000F077802DE901494FEA11404FEA1446EB
:1021900021EA004800FB06FC24EA064708FB06F695
:1021A00007FB08F800FB07F718EB06484CEB164C4A
:1021B0004FEA124B18EB07484FEA15464CEB174015
:1021C00022EA0B4E0BFB06FC25EA06470EFB06F641
:1021D00007FB0EFE0BFB07F71EEB064E4CEB164CF7
:1021E0004FF000061EEB074E4CEB174B18EB0B089D
:1021F00040F1000018EB0E0B58EB000840F1000016
:102200008F1A4FF000013CBFC943661B14BFB5EBEA
:10221000040C00213CBFC943F61B4FEA17444EEAA9
:102220008E0E27EA04454FEA1C4704FB07622CEA9E
:10223000074C05FB07F70CFB05F604FB0CFC16EB43
:10224000074642EB174216EB0C4642EB1C421BEBD7
:10225000060658EB0202414146EA9E0601D5BDE85A
:102260000189B619524141EB0101A3F10103BDE817
:1022700001894FEA14454FEA114724EA054621EA4D
:10228000074C05FB07F406FB07F70CFB06F105FB03
:102290000CFC11EB074144EB17444FEA124711EBDA
:1022A0000C4144EB1C4422EA074C05FB07F206FBF9
:1022B00007F70CFB06F605FB0CFC16EB074642EB9A
:1022C000174216EB0C4642EB1C456A1854F100010C
:1022D00048BF7047B619524141EB0101A3F1010318
:1022E000704795F0000F37D04FEA11424FEA14477C
:1022F00021EA024624EA074C02FB07F106FB07F736
:102300000CFB06F402FB0CFC14EB074441EB1741F9
:102310004FEA154714EB0C4441EB1C4125EA074CEE
:1023200002FB07F506FB07F70CFB06F602FB0CFCAD
:1023300016EB074645EB174516EB0C4645EB1C42E2
:10234000121951F1000148BF7047B619524141EBD3
:102350000101A3F1010370474FEA14454FEA114709
:1023600024EA054621EA074C05FB07F106FB07F7BF
:102370000CFB06F24FF0000605FB0CFC12EB0742CB
:1023800041EB174112EB0C4251EB1C4148BF704727
:10239000921841EB0101A3F10103704710B503F05E
:1023A00025FB0849002081F82400074800F06AF85E
:1023B0000548283000F066F80348BDE8104050306A
:1023C00000F060B880040020240000200A4910B505
:1023D00081F8240000280ED103F0BEFB074800F06E
:1023E00051F80648283000F04DF80448BDE8104088
:1023F000503000F047B810BD8004002024000020B9
:10240000004870478004002010B503F005FB03F07E
:10241000BBF903F043FF0A4800F034F808482830BD
:1024200000F030F80648503000F02CF800F06AFE5A
:102430000349091F0860BDE8104003F08DBB000090
:102440002400002010B503F023FF08B903F07CFF3F
:102450000A486FF080420A4B016A0A4400219A42FE
:1024600008D2012280F825208269B2F5000F00DB36
:10247000816110BD80F8251010BD0000800400208F
:10248000FFFF9F01002101614161816170472DE9DA
:10249000F04704469046C06805F000FD0646314608
:1024A000206805F06BFB81464146304605F066FB2F
:1024B000216905F0B1F92061616A05F02BFC606AC1
:1024C00008D380F00040216905F024FC03D2606A43
:1024D00080F0004020612169606805F04FFB002515
:1024E0000746B8F5000F0ADB3046616905F0D6FCF7
:1024F000A16805F043FB414605F002FA054639465E
:10250000484605F089F9294605F086F9A061E16998
:1025100005F000FC01D2E06905E0216AA06905F040
:10252000F9FA01D2206AA0616661A069BDE8F0876E
:102530000149C8617047000080040020014988619A
:102540007047000080040020FEB500F0DBFD4A4E1D
:1025500004463068201A05F0C9FA484905F0D0F958
:1025600005464748854230DB3460464C211D2046F5
:1025700002F034FE02AA01A9684602F0D5FE18B99D
:102580000198A0600098E06003F040F93E4803F035
:10259000F8F820613D4803F0F4F8606103F030FF83
:1025A00003F070FE2062FFF74DFF206820F000412D
:1025B0003748814207DC616821F00041814202DC3A
:1025C00094F8250010B1FFF7E9FEFEBD94F8240051
:1025D000F0B3D4E9040105F01FF94FF0FF3105F025
:1025E00037FD254AA1692C32D160014622482A468E
:1025F0002C30FFF74CFF0146E06905F00DF91E494C
:102600002A46091DC8601C482168001DFFF73FFFCE
:102610001949064654310020C86017482A465430EC
:102620006168FFF734FF05460146304605F036FC89
:1026300005F028FA04B22946304605F0EDF805F019
:1026400021FA01B24FF47A725042944206DD00E062
:1026500001E0144605E003F07FFAFEBD844200DA93
:102660000446914201DD114602E0814200DA014652
:10267000204603F0E1F9FEBD2000002000007A446E
:102680000AD7233C80040020A0000020BC000020CA
:10269000000034422DE9F04387B00D460646FFF7AF
:1026A000AFFE6EA13046FDF71DFF002842D06DA1A0
:1026B0003046FDF717FF002841D06CA13046FDF7EA
:1026C00011FF002840D06BA13046FDF70BFF00281A
:1026D00045D06BA13046FDF705FF00284CD06AA11C
:1026E0003046FDF7FFFE00284BD069A13046FDF7CC
:1026F000F9FE00284AD068A13046FDF7F3FE002815
:1027000049D067A13046FDF7EDFE674C00284FD059
:1027100066A13046FDF7E6FE00285AD065A1304696
:10272000FDF7E0FE002869D063A007B0BDE8F043E4
:1027300000F0ACB90120FFF749FE64A0F5E70020E6
:10274000FFF744FE66A0F0E76A4825B1284604F08A
:10275000D1F804F04DFBFFF7F1FE67A0E5E76B4809
:1027600035B1284604F0C6F804F042FB80F0004082
:10277000FFF7E4FE66A0D8E76A48FFF7D9FE6AA033
:10278000D3E76D48FFF7D4FE6CA0CEE707B0BDE8F5
:10279000F04300F08BB90020FFF718FE0020FFF790
:1027A000CDFE0020FFF7C4FE03F00EF867A0BCE7E3
:1027B000002D4FD0284604F09DF804F019FB054683
:1027C000FFF7BCFE284604F0FBFF0B46024663A160
:1027D0000FE0002D3ED0284604F08CF804F008FBF2
:1027E0000546FFF7A5FE284604F0EAFF0B46024621
:1027F0005FA12046FDF7FEFC204696E7002D29D07C
:1028000006A8009005AB04AA5EA12846FDF7CAFD04
:1028100003281FD15E4804990160059D89464560E3
:1028200006998160084604F0CBFF07468846284693
:1028300004F0C6FF05460E46484604F0C1FF8DE889
:10284000E0010B46024653A12046FDF7D3FC20468B
:1028500000F01CF907B0BDE8F0830000535441526A
:102860005400000053544F5000000000464F525790
:10287000415244004241434B574152440000000042
:102880004C4546540000000052494748540000009F
:1028900053544154555300005245534554000000D1
:1028A0005350454544000000E8040020414E474C89
:1028B0004500000050494400556E6B6E6F776E20E6
:1028C000436F6D6D616E640D0A00000042616C61C2
:1028D0006E636520537461727465640D0A000000B4
:1028E00042616C616E63652053746F707065640D36
:1028F0000A000000CDCC4C3E4D6F76696E672046D5
:102900006F72776172640D0A00000000CDCC4CBE7E
:102910004D6F76696E67204261636B776172640DFB
:102920000A0000000000A0C05475726E696E672036
:102930004C6566740D0A00000000A0405475726E6C
:10294000696E672052696768740D0A005379737461
:10295000656D2052657365740D0A000053706565DE
:10296000642073657420746F20252E32660D0A0072
:10297000416E676C652073657420746F20252E325C
:10298000660D0A00256620256620256600000000E9
:1029900024000020504944207365743A204B703D58
:1029A000252E3266204B693D252E3266204B643D34
:1029B000252E32660D0A00002DE9F041074600F091
:1029C000A1FB144C01260025C4F8E80084F8E66059
:1029D0000D2F0CD00A2F0AD0B4F8E0003F2816D2F1
:1029E000275434F8E00F401C2080BDE8F081B4F893
:1029F000E020002AF9D0074901F1C0000746FDF7A1
:102A000018FD34F8E00FC55566712580EDE7A4F890
:102A1000E050EAE7A804002010B5012209490A485D
:102A200001F0BEFF074C002084F8E40024F8E00F1A
:102A30006071A07100F066FBA060BDE8104003A0CB
:102A400000F024B8A80400202803002042616C6133
:102A50006E636520526F626F742052656164790DF8
:102A60000A00000070B5084D002420212846FDF71B
:102A7000B7FC18B1002100F8011B04462146284686
:102A8000BDE87040FFF706BE6805002010B504469B
:102A9000FDF7B0FC214682B2BDE810404FF47A73D6
:102AA000014801F0A4BF0000280300202DE9F047F1
:102AB00088B0FFF7A5FC0746006A04F081FE824655
:102AC0008946D7E9040104F0A7FE4FF0FF3105F075
:102AD000BFFA04F075FE06468846786804F070FE7A
:102AE00004460D46386804F06BFE024697F8240051
:102AF0000B46CDE905908DE870050648044904466B
:102B0000FDF778FB08B02046BDE8F047FFF7BEBFF1
:102B100098810008E804002070B500F0F3FA104D29
:102B2000044641F28831D5F8E8000026201A884290
:102B300001D985F8E66095F8E50018B1FFF792FF36
:102B400085F8E560074E3068201AB0F5FA6F06D9AF
:102B500095F8E600002802D0FFF7A8FF346070BDAA
:102B6000A80400209C000020FEE70000014800F0BF
:102B70009FB800003C040020014800F099B8000014
:102B8000F8030020014800F093B800007003002013
:102B9000014800F08DB80000B403002030B590F873
:102BA00040500124AC40C56B6C60046863604368AE
:102BB000102B036803D099600068C26030BD9A6032
:102BC0000068C16030BD7047022000F095B972B650
:102BD000FEE710B590F821100022022905D004214B
:102BE000816380F82020012010BD01680B6823F06C
:102BF0000E030B6001680B6823F001030B6090F873
:102C00004030C46B012101FA03F3636080F82110A6
:102C100080F82020104610BD10B590F82110002437
:102C2000022903D00421816301243DE001680A6880
:102C300022F00E020A6001680A6822F001020A60AE
:102C40001A4A0168914201D1012121E0174A143248
:102C5000914201D110211BE0144A2832914201D146
:102C6000891515E0114A3C32914201D189140FE0D7
:102C70000E4A5032914202D14FF4803108E00B4AA3
:102C80006432914202D14FF4801101E04FF0807123
:102C9000064A083A5160012180F82110002180F88D
:102CA0002010416B01B18847204610BD080002404A
:102CB0002DE9F05FC16B0C6801680B68D0F840C06B
:102CC000042202FA0CF2494DDFF824A1494E4A4F82
:102CD000DFF828B1DFF828E122422CD05A072AD5A4
:102CE0000A68920603D40A6822F004020A600168A6
:102CF000A94201D1042219E0514501D1402215E039
:102D0000B14202D14FF4806210E0B94202D14FF4D7
:102D100080420BE0594502D14FF4802206E0714514
:102D200002D14FF4800201E04FF080622F49083950
:102D30004A60C16A3BE04FF0020808FA0CF818EA52
:102D4000040F4FF000094FF0010235D05FEA83789D
:102D500032D50B689B0605D40B6823F00A030B6081
:102D600080F821200168A94201D1022219E05145D1
:102D700001D1202215E0B14202D14FF4007210E0DF
:102D8000B94202D14FF400520BE0594502D14FF441
:102D9000003206E0714502D14FF4001201E04FF01D
:102DA0000072124908394A6080F82090816A00292F
:102DB0001AD0BDE8F05F0847082505FA0CF5254252
:102DC00012D01B0710D50B6823F00E030B6090F890
:102DD0004010C36B02FA01F15960826380F8212030
:102DE00080F82090016BE2E7BDE8F09F0800024008
:102DF0001C000240300002404400024058000240E3
:102E00006C00024030B528B308C813491422194495
:102E1000B1FBF2F18900C16310498163022141775E
:102E20001A6843F6F0718A43D0E900142143D0E9CF
:102E300002452C43214304692143446921438469A9
:102E40002143114319600021416301224277017738
:102E5000084630BD012030BDF8FFFDBF0000024034
:102E600070B5044690F82000002501280CD0012000
:102E700084F8200094F821600020012E06D084F808
:102E800020000225284670BD022070BD022684F86D
:102E90002160A0632068066826F0010606602046CF
:102EA000FFF77CFEE06A00282068016802D041F04C
:102EB0000E0106E021F0040101602068016841F084
:102EC0000A0101602068016841F001010160D9E751
:102ED00070B5044600F016F90546601C02D004489F
:102EE0000078044400F00EF9401BA042FAD370BDF4
:102EF0000C01002070470000044910B50A68024226
:102F000002D00860FFF7F6FF10BD00001404014076
:102F10002DE9F84FDFF8B8910024A9F1040B2346FE
:102F20000F2709F1040AABF1040EC9E00125A54001
:102F30002A40AA427DD1674ED1F804C0ACEB060806
:102F4000B44532D014DCBCF1030F3AD009DCBCF13B
:102F5000000F2AD0BCF1010F1CD0BCF1020F31D1FF
:102F60001DE0BCF1110F17D0BCF1120F2AD119E0EE
:102F7000B8F5881F19D006DCB8F5803F15D0B8F534
:102F8000801F1FD111E0B8F5001F0ED0B8F5041F47
:102F900018D10AE0CB6815E0CB681B1D12E0CB68A6
:102FA00008330FE0CB680C330CE08B682BB1012B9E
:102FB0004FF0080303D0456104E0042302E00561FB
:102FC00000E00023FF2A01D8064601E000F10406D4
:102FD0004FEA840501D9A5F12005D6F8008007FA4B
:102FE00005FC28EA0C0803FA05F548EA0508C6F8C6
:102FF00000804D68ED0062D5374DAE6946F00106A0
:10300000AE61AD6924F0030605F001050095334D6E
:1030100006EB050CDCF80850A607360F07FA06F891
:1030200025EA0805DFF8B880404503D14FF00008D5
:1030300017E044E0DFF8AC80404502D14FF00108D2
:103040000FE0DFF8A480404502D14FF0020808E00D
:10305000DFF89880404502D14FF0030801E04FF0BF
:10306000040808FA06F848EA0508CCF808804D6814
:10307000D9F80060ED024D4601D5164300E09643B5
:103080002E604D68DAF80060AD02554601D5164352
:1030900000E096432E604D68DBF80060AD035D46AE
:1030A00001D5164300E096432E604D68DEF80060BF
:1030B000ED03754601D5164300E096432E60641C6F
:1030C0000D682A46E5407FF431AFBDE8F88F000077
:1030D00008040140000011100010024000000140EF
:1030E00000080140000C01400010014000140140A4
:1030F0008068084000D0012070470AB10161704724
:103100000904FBE701488068704700000C010020BB
:1031100070B5040025D094F83D00002520B984F84E
:103120003C50204600F07EFA242084F83D002068C0
:10313000016821F0010101602068016841F400414B
:1031400001602068016821F40041016000F0C6FBC5
:103150004D4A6168914201D84C4900E04C4988428F
:1031600001D2012070BD4B492368B0FBF1F15E68CC
:1031700026F03F060E435E606368934206D94FF423
:10318000967359434FF47A73B1FBF3F12368491CEA
:103190001E6A26F03F06314319626168914210D8D9
:1031A0004900401EB0FBF1F2521CC2F30B02042A8C
:1031B00001D2042022E0B0FBF1F0401CC0F30B0070
:1031C0001CE0A268F2B301EBC10303EB0116431E3E
:1031D000B3FBF6F35B1C43F480431B0549D092B369
:1031E00001EBC10202EB0111401EB0FBF1F0401CEB
:1031F000C0F30B0040F4804040F400402168CA69ED
:103200004CF6FF739A431043C861D4E90710014399
:103210002068026822F0C00211430160D4E9030172
:1032200001432068826848F2FF339A43114381606A
:10323000D4E9050108432168CA6822F0FF0210435F
:10324000C86001E00EE016E02068016841F001016D
:1032500001602564202084F83D00256384F83E50F9
:10326000002070BD01EB4106431EB3FBF6F35B1C6F
:10327000B3E70120C2E701EB4101401EB0FBF1F0D2
:10328000401CC0F30B00B7E7A086010080841E003D
:1032900000093D0040420F002DE9FF4F83B000259B
:1032A000DDE910799A4693460446DDF8488000959A
:1032B000FFF728FF064694F83D0020287CD119230B
:1032C000012288492046009601F0F8FC0028F5D13B
:1032D00094F83C0001286FD0012084F83C0020685D
:1032E0000168C90703D1016841F00101016020684C
:1032F000016821F400610160222084F83D00402033
:1033000084F83E0025646762A4F82A90608D2085C9
:103310007548E062CDE9008653465A462046049936
:1033200001F0CEFB00287CD1208DDFF8C091202752
:1033300068B1012814D00228206801681ED041F429
:10334000806101602068416980690090BCE020686C
:10335000416981690091016841F400710160B3E045
:103360002068016821F48061016072B620684169BB
:1033700081690091016841F400710AE041F4006143
:10338000016072B62068416981690091016821F489
:103390008061016062B697E0032865D801280CD0EF
:1033A000022843464FF000024946204600960BD0C3
:1033B00001F084FCA8BB0CE091E032464146204677
:1033C00001F022FD68BB72E001F078FC48BB72B6E8
:1033D00033E02068016821F48061016072B62068E2
:1033E0000069616A0870606A401C6062208D401E3E
:1033F0002085608D401E60853D4846F2A81100681A
:10340000B0FBF1F0C0EBC00000EB80000090401E6C
:10341000009007D020684069C04340070DD5009850
:10342000F5E727E044F8305F6773A573206940F043
:103430002000206162B625731CE02068016841F419
:103440000071016020680069616A0870606A401C50
:103450006062218D491E2185618D491E618562B69C
:1034600021680969017026E032464146204601F094
:10347000CBFC18B1012007B0BDE8F08F20680069CF
:10348000616A0870606A401C6062208D401E81B2D3
:103490002185608D401E608520684269D2435207B5
:1034A00012D4032903D1016821F4806101602068EE
:1034B0000069616A0870606A401C6062208D401E6D
:1034C0002085608D401E6085208D00287FF464AFCC
:1034D00084F83D7084F83E5084F83C50CBE70220DD
:1034E000C9E70000020010000000FFFF0400010017
:1034F000D80000202DE9FF4F83B09A46DDE91197EF
:1035000093460446DDF84080FFF7FCFD054694F83D
:103510003D0020287FD119230122404920460095F3
:1035200001F0CCFB002876D194F83C00012872D041
:10353000012084F83C0020680168C90703D10168B4
:1035400041F0010101602068016821F4006101601F
:10355000212084F83D00402084F83E0000262664A7
:10356000C4F82480A4F82A90608D20852C48E0625D
:10357000CDE9007553465A462046049901F01EFBDA
:1035800070B930E02A463946204601F075FC58B142
:10359000206C042804D12068016841F400710160A6
:1035A000012007B0BDE8F08F606A216800780861EB
:1035B000606A401C6062218D491E89B22185628D3E
:1035C000521E628522685369DB435B070BD469B1E5
:1035D00000781061606A401C6062208D401E20856A
:1035E000608D401E6085208D0028CBD12A4639464B
:1035F000204601F037FB0028CAD154F83D0B016882
:1036000041F400710160202004F81E09E677667716
:103610000020C6E7FFE70220C3E700000200100019
:103620000000FFFF10B586B00021009101910291CA
:10363000039100680F4988421AD10F4CA06940F0ED
:103640000800A061A069694600F008000490C0204D
:10365000009012200190032003900848FFF758FCC7
:10366000E06940F40010E061E06900F400100490AB
:1036700006B010BD0054004000100240000C014094
:103680000248816802781144816070470C01002073
:10369000074810B5016841F010010160032000F0F7
:1036A00075F80F2000F006F800F024F8002010BD97
:1036B0000020024070B50D4D04464FF47A71287811
:1036C000B1FBF0F00A490968B1FBF0F000F0DCFA58
:1036D00048B9102C07D200222146501E00F036F8BF
:1036E00000206C6070BD012070BD00000C01002046
:1036F000D80000200C4808B5816941F001018161C2
:10370000816901F001010091C16941F08051C161FD
:10371000C06900F0805000900448416821F0E061E9
:1037200041F00071416008BD0010024000000140FE
:10373000002809DB00F01F020121914040098000B0
:1037400000F1E020C0F8001170470000F0B40E4B0B
:103750001B680C46C3F30223C3F10705042D00D9EF
:103760000425191D072901D2002300E0DB1E0126D4
:1037700006FA05F1491E214099409E40761E1640EA
:103780003143F0BC02F0C4BE0CED00E0064900F08D
:10379000070208684FF6FF03184040EA0220034A78
:1037A00010430860704700000CED00E00000FA05CF
:1037B0002DE9F0470F46050061D0434E306800F018
:1037C0000700B84209D2306820F007003843306063
:1037D000306800F00700B84251D128683B4C81079F
:1037E00012D5400703D5606840F4E0606060287837
:1037F000000703D5606840F4605060606068A968A5
:1038000020F0F000084360602878C00728D068687E
:10381000012810D02168022810D0890700292EDA4B
:10382000616821F0030101436160FFF76BFC804692
:1038300041F288390DE021688903EFE78901EDE75E
:10384000FFF760FCA0EB0801494502D90320BDE861
:10385000F0876068696800F00C00B0EB810FEFD171
:10386000306800F00700B8420BD9306820F007003C
:1038700038433060306800F00700B84201D00120C2
:10388000E5E72878400705D56068E96820F4E0603E
:10389000084360602878000706D56068296920F42D
:1038A000605040EAC100606000F038F86168084A82
:1038B000C1F30311515CC84006490860064800681E
:1038C000FFF7F8FE0020C2E700200240001002408F
:1038D000D8800008D80000201001002004480549C5
:1038E00000684968044AC1F30221515CC84070472E
:1038F000D800002000100240E88000080448054974
:1039000000684968044AC1F3C221515CC84070474D
:10391000D800002000100240E88000080E4A5168DC
:103920000E4801F00C03042B11D0082B0FD10C48CA
:10393000C1F38343C903C05C0AD55168084AC1F387
:103940004041921E515C054A5043B0FBF1F0704774
:1039500004494843704700000010024000127A00FA
:10396000F280000800093D002DE9F84F040070D0F6
:103970002078C04DC00749D06868C0F38100012895
:1039800007D06868C0F38100022809D16868C003C5
:1039900006D52868800339D560680028E7D035E06F
:1039A0006068B0F5803F0BD010B1B0F5A02F11D0FA
:1039B000286820F480302860286820F4802002E005
:1039C000286840F480302860606890B1FFF79AFB67
:1039D00006460AE0286840F480202860F0E700BF2F
:1039E000FFF790FB801B642873D828688003F7D505
:1039F0000CE0FFF787FB064605E000BFFFF782FB00
:103A0000801B6428F0D828688003F7D420789A4E69
:103A100080074FF001094FF0000839D5686810F0B1
:103A20000C0F07D06868C0F38100022809D16868CC
:103A3000C00306D42868800714D52069012808D15E
:103A400010E02069B0B1C6F80090FFF75BFB0746B5
:103A500005E00AE1FFF756FBC01B0228C4D828681E
:103A60008007F7D52868616920F0F80040EAC100B6
:103A700028600DE0C6F80080FFF744FB074604E02D
:103A8000FFF740FBC01B022823D828688007F7D423
:103A9000207800072CD57948A169D9B1C0F80090E9
:103AA000FFF730FB074604E0FFF72CFBC01B0228A2
:103AB0000FD8686A8007F7D571484FF4FA5100684B
:103AC000B0FBF1F0009000BF0098411E0091FAD2C7
:103AD0000EE080E0C0F80080FFF714FB074604E02A
:103AE000FFF710FBC01B022875D8686A8007F7D45F
:103AF0002078400760D5E8690027C00008D4E8694D
:103B000040F08050E861E869012700F080500090A3
:103B10005C480168C90513D40168834641F480718B
:103B20000160FFF7EFFA824606E000BFFFF7EAFA0E
:103B3000A0EB0A0064284ED8DBF80000C005F5D5DC
:103B4000E06801280AD008B1052813D0286A20F0BF
:103B500001002862286A20F0040002E0286A40F090
:103B600001002862E06841F2883B98B1FFF7CAFA89
:103B700082460BE0286A40F004002862EEE700BFAE
:103B8000FFF7C0FAA0EB0A0159455AD8286A800706
:103B9000F6D50CE0FFF7B6FA824605E0FFF7B2FA79
:103BA000A0EB0A0159454CD8286A8007F6D41FB10A
:103BB000E86920F08050E861E06988B36968C1F382
:103BC0008101022944D00228C6F8608004D0FFF7A2
:103BD00099FA044638E034E0FFF794FA074604E027
:103BE000FFF790FAC01B02282BD828688001F7D471
:103BF000206AB0F5803F05D16868A16820F40030E4
:103C000008436860D4E908010843696821F4741125
:103C100008436860C6F86090FFF774FA044606E04F
:103C200025E000BFFFF76EFA001B022809D82868BC
:103C30008001F7D51BE000BFFFF764FA001B0228E4
:103C400002D90320BDE8F88F28688001F4D40EE083
:103C50000128F7D06868226A00F48031914204D1CB
:103C6000616A00F47010884201D00120EAE7002068
:103C7000E8E7000000100240000042428004424297
:103C8000D80000200070004010B5401EB0F1807FC9
:103C900001D3012010BD4FF0E02460610F216017B7
:103CA00002F036FC0020A06107202061002010BD3A
:103CB0007047704770B590F83C20012A26D0012447
:103CC00080F83C40022280F83D2003685A689D68D5
:103CD00022F070060A6832435A600D4B02689A421D
:103CE00008D0B2F1804F05D00A4B9A4202D00A4B5D
:103CF0009A4204D1496825F080031943916080F805
:103D00003D40002180F83C10084670BD022070BD87
:103D1000002C0140000400400008004010B50400E1
:103D200003D094F83D0010B107E0012010BD002041
:103D300084F83C00204600F01FF8022084F83D0083
:103D4000211D206801F01CFF012084F8460084F842
:103D50003E0084F83F0084F8400084F8410084F875
:103D6000420084F8430084F8440084F8450084F855
:103D70003D00002010BD000008B5006806498842DB
:103D800008D10648C16941F00201C161C06900F073
:103D90000200009008BD0000000400400010024036
:103DA00070B5044690F83C000025012817D0012684
:103DB00084F83C60022084F83D002068826822F08C
:103DC000770222F47F4282600868502838D00DDCE8
:103DD00020284FD005DC90B3102811D14AE00220F2
:103DE00070BD302846D040280AD13BE060282FD053
:103DF00070280DD0B0F5805F03D0B0F5005F12D011
:103E0000012584F83D60002084F83C00284670BD00
:103E1000CB68D1E90121206801F0FBFE20688168B0
:103E200041F0770109E0CB68D1E90121206801F078
:103E3000F0FE2068816841F480418160E1E719E08B
:103E4000CA684968206801F099FF5021206806E09F
:103E5000CA684968206801F0CFFF6021206801F03E
:103E6000E2FECEE7CA684968206801F087FF40217A
:103E70002068F4E7226801461046F0E72DE9F0419A
:103E80000D46040003D094F83D0018B108E001206D
:103E9000BDE8F081002084F83C00204600F040F8A6
:103EA000022084F83D002068816844F207029143B3
:103EB0008160211D206801F063FE2268906891698D
:103EC000166A2B68AF69034340F20330814341EA2D
:103ED0000721A868EF6908434FF6FC418843E96869
:103EE00040EA0720014328692F6A000140EA0730B1
:103EF000084369686D6926F0220646EA05152943DC
:103F000093602268906154F8460B0162012004F826
:103F10001F09E0752076E0762077A0750020B7E7CE
:103F200000B585B0002100910191029103910068D4
:103F3000B0F1804F16D10C48C16941F00101C16157
:103F4000C16901F001010491816941F004018161BD
:103F50008069694600F00400049003200090034843
:103F6000FEF7D6FF05B000BD00100240000801407A
:103F700070B590F83E60044690F83F5090F842309B
:103F800090F84320022021B104290ED0012E1BD12C
:103F900014E0012E18D1012B16D184F83E0084F8CC
:103FA000420001220021206820E0012D0CD1012ACD
:103FB0000AD184F83F0084F8430014E0012D03D1B6
:103FC000012B01D1012A01D0012070BD84F83E00EF
:103FD00084F83F0084F8420084F843000122002165
:103FE000206801F009FE01220421206801F004FE8E
:103FF0002068016841F001010160002070BD704738
:104000002DE9F041054690F83C0000260C460128B9
:1040100010D0012085F83C0072B1042A1CD0082A77
:104020002CD00C2A50D00126002085F83C003046C8
:10403000BDE8F0810220FBE7D4E90012E3682868BC
:1040400001F0AEFE2868816921F00C0181612868C9
:104050008169A26811430FE0D4E90012E36828687F
:1040600001F0DCFE2868816921F4406181612868E3
:104070008169A26841EA02218161D5E72868D4E913
:10408000002C277B036A016A21F480710162C169F7
:1040900023F4007321F0030141EA0C0121F0F00C3C
:1040A00039074FF400774CEA116107EA02221A43FC
:1040B000C16102622868C16921F00C01C1612868F0
:1040C000C169A26811432BE02868D4E90021E768A0
:1040D000036AD0F820C02CF4805CC0F820C0D0F86F
:1040E0001CC023F400532CF4407C4CEA012121F441
:1040F000704C4FF6FF7101EA07314FF4005741EA67
:104100000C0107EA02321A43C16102622868C169E0
:1041100021F44061C1612868C169A26841EA0221B5
:10412000C16181E710B5040003D094F83D0010B1DF
:1041300007E0012010BD002084F83C00204600F07C
:104140001FF8022084F83D00211D206801F018FDB1
:10415000012084F8460084F83E0084F83F0084F88B
:10416000400084F8410084F8420084F8430084F859
:10417000440084F8450084F83D00002010BD000094
:1041800000B585B000210091019102910391006872
:10419000124988421FD11248816941F4006181614E
:1041A000816901F400610491816941F00401816138
:1041B0008069694600F0040004904FF4E0600090CC
:1041C0000848FEF7A5FE002211461B20FFF7BEFAA5
:1041D0001B20FFF7ADFA05B000BD0000002C014028
:1041E00000100240000801402DE9F041044600683B
:1041F000C66805694FF00007A90713D5B10711D5A7
:10420000F91E01610120207720688069800720461F
:1042100002D0FFF7F4FE04E000F0A4F8204600F01E
:1042200036F92777680716D5700714D521686FF01F
:1042300004000861022020772068806910F4407F24
:10424000204602D0FFF7DBFE04E000F08BF82046AA
:1042500000F01DF92777280715D5300713D52168F9
:104260006FF008000861042020772068C06980078B
:10427000204602D0FFF7C3FE04E000F073F82046AA
:1042800000F005F92777E80616D5F00614D5216861
:104290006FF010000861082020772068C06910F4D2
:1042A000407F204602D0FFF7AAFE04E000F05AF853
:1042B000204600F0ECF82777E80708D0F00706D092
:1042C00021686FF001000861204600F02FF92806F0
:1042D00008D5300606D521686FF0800008612046B9
:1042E000FFF7E6FC680608D5700606D521686FF072
:1042F00040000861204600F01AF9A8060AD5B00669
:1043000008D521686FF0200008612046BDE8F04123
:10431000FFF7CFBCBDE8F08100B585B0002100916A
:1043200001910291039100680B49884211D10B4819
:10433000816941F0040181618069694600F00400EF
:104340000490C02000900220019003900448FEF7E2
:10435000DFFD05B000BD0000000400400010024079
:1043600000080140704770B5044690F83C000026F4
:104370000D4601280FD0012084F83C006AB1042AC0
:104380001DD0082A2FD00C2A3FD00126002084F807
:104390003C00304670BD022070BD206801F04CFC2E
:1043A0002068816941F0080181612068816921F0FC
:1043B00004018161206881692A69114311E0206844
:1043C00001F062FC2068816941F40061816120682C
:1043D000816921F480618161206881692A6941EAEB
:1043E00002218161D2E7206801F07AFC2068C1696E
:1043F00041F00801C1612068C16921F00401C16177
:104400002068C1692A69114311E0206801F094FC19
:104410002068C16941F40061C1612068C16921F46B
:104420008061C1612068C1692A6941EA0221C161D4
:10443000ACE710B5040003D094F83D0010B107E0DC
:10444000012010BD002084F83C00204600F01EF83A
:10445000022084F83D00211D206801F091FB01201D
:1044600084F8460084F83E0084F83F0084F8400059
:1044700084F8410084F8420084F8430084F8440042
:1044800084F8450084F83D00002010BD7047704757
:1044900010B50446022249B104290ED0082913D0D0
:1044A00094F84100012816D0012010BD94F83E0078
:1044B0000128F9D184F83E200FE094F83F0001284C
:1044C000F2D184F83F2008E094F840000128EBD1B5
:1044D00084F8402001E084F841200122206801F0A6
:1044E0008BFB0F492068884203D1426C42F40042A2
:1044F00042642068884208D0B0F1804F05D0094955
:10450000884202D00849884204D1816801F007013D
:10451000062903D0016841F001010160002010BDAF
:10452000002C014000040040000800407047704724
:1045300070477047F8B5016804460868CA684B6957
:1045400010F00F0F4FF0000559D003F0010602F4F0
:104550009077374365D0C10705D0D10503D5616C8D
:1045600041F001016164410705D5D90703D0616CB1
:1045700041F002016164810705D5D90703D0616C60
:1045800041F004016164010707D502F020013143C5
:1045900003D0616C41F008016164616C00293AD07C
:1045A000800604D5900602D5204601F006FD20685D
:1045B0004069616CC0F38010090700D460B32046E5
:1045C00001F0C6FC20684069400621D520681430FF
:1045D00050E8001F21F0400140E80012002AF5D108
:1045E000E06BA8B16D494163E06BFEF715FB002855
:1045F00011D0E06B416B01B0BDE8F0400847830685
:104600000FD593060DD52046BDE8F84001F0D5BC86
:104610002046FFF78EFFF8BD2046FFF78AFF65644E
:10462000F8BD266B2023012E7CD1C6067AD5D6068E
:1046300078D508684868009048694FF0020640063F
:1046400040D5E16B086840680004000CE8D0A28DFA
:104650008242E5D9E085886920282DD020680C3079
:1046600050E8001F21F4807140E80012002AF5D1C3
:104670002068143050E8001F21F0010140E80012CA
:10468000002AF5D12068143050E8001F21F04001C5
:1046900040E80012002AF5D184F8423025632068F2
:1046A0000C3050E8001F21F0100140E80012002AF1
:1046B000F5D1E06BFEF78DFA6663A08DE18D401AAF
:1046C00081B22AE0A08DE18D401A81B2E08D0028F0
:1046D000A6D00029A4D022680C3252E8000F20F4A2
:1046E000907042E80007002FF5D12068143050E8A0
:1046F000002F22F0010240E80027002FF5D184F8B6
:104700004230256320680C3050E8002F22F0100260
:1047100040E80023002BF5D166632046FFF708FF31
:10472000F8BDFFE705062BD5150629D594F84100FD
:104730002128F5D1A068B0F5805F01D12069B0B122
:10474000206A411C2162216800784860E08C401E8C
:104750000004000CE084E3D12068C16821F08001EE
:10476000C1602068C16841F04001C160D8E7206A9B
:104770000088C0F308004860206A801C2062E5E7DA
:104780004006CDD55006CBD5CA68204622F040025F
:10479000CA6084F8413000F07AF9C1E7535E00083E
:1047A00070B5040004D094F84100002510B106E073
:1047B000012070BD84F84050204600F023F82420EA
:1047C00084F841002068C16821F40051C16020468E
:1047D00001F054FC2068016921F4904101612068D6
:1047E000416921F02A0141612068C16841F400510A
:1047F000C1606564202084F8410084F8420065634C
:10480000002070BD2DE9F04186B00025009501958E
:10481000029503950446544F03685448022103222D
:1048200080264FF01008BB4249D1C36943F40033DE
:10483000C361C36903F400330493836943F0040341
:10484000836180694A4F00F0040004900420CDE9A0
:104850000001039269463846FEF75AFB0820CDE96D
:104860000005694638460295FEF752FB424F414823
:10487000C7E90005C7E902563D617D61BD61384663
:10488000FD61FEF7BFFA08B1FEF7A1F9E7637C62AC
:10489000394F384844371430C7E902563D617D61CD
:1048A000BD61FD61C7E900083846FEF7ABFA08B103
:1048B000FEF78DF9A7637C6206B0BDE8F0812F4F4B
:1048C000BB42F9D1C36943F48023C361C36903F4D4
:1048D00080230493836943F0080383618069039212
:1048E00000F0080004903815CDE90001244F694616
:1048F0003846FEF70DFBF814CDE900056946384649
:104900000295FEF705FB1C4F1A4888373C38C7E96B
:104910000005C7E902563D617D61BD613846FD6114
:10492000FEF770FA08B1FEF752F9E7637C62124FA6
:104930001048CC375038C7E902563D617D61BD61F2
:10494000FD61C7E900083846FEF75CFA08B1FEF7DA
:104950003EF9A7630022114627207C62FEF7F6FE8F
:104960002720FEF7E5FEA7E70044004000100240C4
:10497000000801406C000240700300200048004025
:10498000000C014090F84230202B01D002207047EB
:1049900021B11AB10023036301F0CCBB01207047A1
:1049A00090F84230202B01D00220704721B11AB17B
:1049B0000023036301F006BC0120704710B50068B6
:1049C000074988420AD107480078FDF7F5FFBDE89E
:1049D0001040012203490448FFF7E2BF10BD000068
:1049E00000480040A80400202803002070472DE95B
:1049F000F843044690F84100984616460D46202894
:104A000002D00220BDE8F88385B17EB10020606449
:104A1000212084F84100FEF775FBA6848146E684D8
:104A2000A0682027B0F5805F02D003E00120E9E70D
:104A3000206910B12E4600250EE000260CE08021F2
:104A4000204601F0DAFBA8B9C6B116F8010B2168BF
:104A50004860E08C401EE084E08C4B464FF0000242
:104A6000CDF800800028EAD14FF04001204601F047
:104A7000C4FB40B184F841700320C3E735F8020B52
:104A8000C0F30800E3E784F841700020BAE77047FC
:104A9000FEE701684A69D24352050FD46FF4806281
:104AA0004A61002140F8301F20224273817302695D
:104AB00042F0040202610173012070470020704738
:104AC0002DE9F84F0446006889460B9D0168984619
:104AD000174641F4806101602068016841F48071EB
:104AE000016000954FF0011B0022594620460A9BA9
:104AF00000F0E4F84FF4007A40B120680068C00587
:104B000001D5C4F840A00320BDE8F88F216809F062
:104B1000FE0008612B46284920460A9A00F016F943
:104B2000F0BB20684169806900902A4620460A99B6
:104B300000F0A2F940B1206C04283AD12068016845
:104B400041F40071016034E0FEB2B8F1010F09D008
:104B50002168380A08612A4620460A9900F08CF933
:104B60000028E8D1206806612A4620460A9900F00C
:104B700083F90028DFD12068016841F48071016069
:104B800000950022594620460A9B00F097F800281D
:104B9000B3D1216809F0FF0040F00100086100E096
:104BA00007E02B46044920460A9A00F0CFF8002877
:104BB000AAD00120A8E70000020001002DE9F84377
:104BC000044600680D46DDE90897016898461646D8
:104BD00041F4807101604B4600224FF001112046E4
:104BE000009700F06BF848B120680068C00502D556
:104BF0004FF4007020640320BDE8F883216805F0BD
:104C0000FE0008613B464A461549204600F09EF8E2
:104C100088B920684169806900903A464946204633
:104C200000F02AF948B1206C042804D120680168FA
:104C300041F4007101600120DEE7F5B2B8F1010F27
:104C400009D02168300A08613A464946204600F0FA
:104C500013F90028E7D1206805610020CCE70000A7
:104C60000200010070B516460D4604461EE02046BF
:104C7000FFF70FFF08B1012070BD681C16D0FEF7CA
:104C800041FA801BA84200D885B920684069C0431A
:104C900040070BD5002044F8300F20216173A0732A
:104CA000216941F0200121612073E4E72068406917
:104CB000C0434007DBD4002070BD00002DE9F04761
:104CC000984617460D460446C1F30746DDF8209086
:104CD0002AE000BFB8F1FF3F26D0FEF713FAA0EBA1
:104CE0000901414502D8B8F1000F1DD12068012EFD
:104CF00016D0806925EA00000004000C12D00020C4
:104D0000B84211D1002044F8300F20216173A07304
:104D1000216941F02001216120730120BDE8F08765
:104D20004069E7E70120EBE72068012E0AD080699F
:104D300025EA00000004000C06D00020B842C9D0CB
:104D40000020EBE74069F3E70120F7E72DE9F047A2
:104D5000984616460D4604464FF000094FF0200ACB
:104D6000C1F3074723E020684069C043400515D4DC
:104D70002068016841F40071016021686FF480606F
:104D80004861C4F8309084F83DA084F83E90216CCE
:104D900041F00401216484F83C9021E0701C06D0AD
:104DA000FEF7B0F9A0EB0800B04203D816B1012F0E
:104DB0001FD021E02068012F15D0806925EA00006E
:104DC0000004000C18D000BF44F8309F84F80DA0F8
:104DD00084F80E90216941F02001216184F80C9043
:104DE0000120BDE8F087406925EA00000004000CBE
:104DF000EAD12068406901E02068806925EA000066
:104E00000004000CAFD1ECE72DE9F04100259046FD
:104E10000E460446202728E04069C043C0060CD453
:104E200054F8301B6FF01000486144F81059677750
:104E3000A577206A2062257714E0FEF763F9A0EBDE
:104E40000800B04200D886B920684069C0434006D7
:104E50000BD544F8305F6773A573206940F02000DC
:104E6000206125730120BDE8F08120684169C943B4
:104E70004906D1D40020F6E770B516460D46044623
:104E80001EE02046FFF705FE08B1012070BD681C3A
:104E900016D0FEF737F9801BA84200D885B92068E4
:104EA0004069C04300060BD5002044F8300F202194
:104EB0006173A073216941F0200121612073E4E74F
:104EC00020684069C0430006DBD4002070BD0000AC
:104ED0001E4810B51C4A4FF06041C0E900121C4A40
:104EE0004900C0E902121B4A4910C0E9041200211E
:104EF000C0E90611C0E90811C0E90A11C0E90C11A6
:104F0000C0E90E11C0E910110F4A48304FF060415E
:104F1000C0E900120E4A4900C0E902120D4A4910C8
:104F2000C0E904120021C0E90611C0E90811C0E976
:104F30000A11C0E90C11C0E90E11C0E91011FEF709
:104F4000E1F80549486010BD4D62503F180100204E
:104F50007493683F51B89E3F000000202DE9FF5F29
:104F600096B024AD044695E88301D4E9082306935E
:104F7000089202F03BFB3A46434602F0F7F9D4E9C7
:104F8000062301F067FF07911290D4E910233846F9
:104F900041460C930A9202F0E9F9CDE90001D4E907
:104FA0000C939A464A4602F021FBD4E90E2309935A
:104FB0000E9202F01BFBD4E9002301F04BFF3A46AE
:104FC000434602F0D3F9D4E90A2301F043FF054632
:104FD0000E46DDE900014A46534602F0FBFA049012
:104FE0008B46DDE90001099B0E9A02F0F3FA0B9162
:104FF0000090D4E902013A46434602F0B7F90C9B0F
:105000000A9A01F027FFCDE90D10D4E904232846C0
:10501000314601F01FFF81468A4602460B4628466C
:10502000314601F0D3FF074688464A4653460B995E
:10503000009801F0CBFF81468A46DDE91801079B05
:10504000129A02F0D3FACDE90F103A46434602F025
:105050008DF9079B129A01F0FDFEC4E90601079144
:105060001290DDE90F324846514602F07FF9069B67
:10507000089A01F0EFFEC4E90801049806902A4658
:1050800033463846414602F071F92A46334602F06B
:10509000A1FAC4E90A015B4638464146069A02F085
:1050A00065F95B46049A02F095FAC4E90C012A46B8
:1050B00033464846514602F059F90B9B009A02F0DC
:1050C00089FAC4E90E015B4648465146069A02F049
:1050D0004DF9DDE90D3202F07DFAC4E910010799BE
:1050E00012981AB0BDE8F09F2DE9F041254C86B02A
:1050F0000126206004A9CDE90016642533467522F7
:105100000295D021FEF7C8F8C0BB9DF810006828B2
:1051100034D14FF0000803AF8DF80C800097CDE933
:10512000016501236B22D0212068FEF7E3F928BB3B
:1051300007208DF80C000097CDE9016501231922A5
:10514000D0212068FEF7D6F9C0B98DF80C80009701
:10515000CDE9016501231C22D0212068FEF7CAF9A0
:1051600060B98DF80C800097CDE9016501231B2201
:10517000D0212068FEF7BEF9002800D0012006B03B
:10518000BDE8F081000000202DE9FE4390460D4669
:10519000064602AA01A9684600F0F2F804001AD1F6
:1051A000BDF9000002F08AFC6FF00D07394602F0ED
:1051B0004FFF3060BDF9040002F080FC394602F078
:1051C00047FF2860BDF9080002F078FC394602F07C
:1051D0003FFFC8F800002046BDE8FE832DE9F04FF0
:1051E0008BB08946804607AA06A905A8FFF7CCFF21
:1051F00028B909AA08A904A800F096F818B1002057
:10520000C8F800007DE00799084602F0B7FC06994F
:105210000446084602F0B2FC214602F0FDFA01F015
:10522000A5FD0146059801F013FA384D294602F014
:10523000A5FC02F0C5FA364E364F32463B4601F029
:10524000C5FE01F0D5FD07998346084602F096FC9D
:1052500005990446084602F091FC214602F0DCFA6A
:1052600001F084FD0146069801F0F2F9294602F0AA
:1052700085FC02F0A5FA32463B4601F0A7FE01F09C
:10528000B7FD8246FDF73EFF234D04466868201AAD
:1052900002F02CFC214902F033FBA0F50001B1F132
:1052A0007C5F00D91E486C6002F08AFA04460D4605
:1052B000089802F085FA06460F46584602F080FA32
:1052C00002460B461748CDE90245CDE90067FFF7D6
:1052D00045FE01F08DFDC8F8000026462F460498D3
:1052E00002F06EFA04460D46504602F069FA024694
:1052F0008DE8F0000B480B464838FFF72FFE01F011
:1053000077FDC9F800000BB0BDE8F08F0000344312
:10531000182D4454FB2109400000002000007A446D
:105320000AD7233C600100202DE9FE4390460D463C
:10533000064602AA01A9684600F048F8040019D1FF
:10534000BDF9000002F0BAFB0C4F394602F0D8FA62
:105350003060BDF9040002F0B1FB394602F0D0FA2A
:105360002860BDF9080002F0A9FB394602F0C8FA2E
:10537000C8F800002046BDE8FE830000000003439B
:1053800070B50646104886B0144600680D4650B108
:105390006423062203A98DE80E0001233B22D021BD
:1053A000FDF77AFF10B1012006B070BDBDF80C000A
:1053B00040BA3080BDF80E0040BA2880BDF8100019
:1053C00040BA20800020EFE70000002070B50646BC
:1053D000104886B0144600680D4650B1642306227A
:1053E00003A98DE80E0001234322D021FDF754FFCD
:1053F00010B1012006B070BDBDF80C0040BA30807D
:10540000BDF80E0040BA2880BDF8100040BA2080D8
:105410000020EFE700000020154808B5416941F081
:10542000010141614069002200F001000090114635
:105430000C20FEF78BF90C20FEF77AF900221146BA
:105440000D20FEF783F90D20FEF772F900221146B8
:105450001020FEF77BF91020FEF76AF900221146B2
:105460001120FEF773F9BDE808401120FEF760B97E
:10547000001002402DE9F04385B00024214800943B
:10548000019402940394816941F020018161816952
:1054900001F020010491816941F004018161816979
:1054A00001F004010491816941F008018161806982
:1054B000DFF8548000F008004FF47045049000229B
:1054C00029464046FDF719FEDFF840904FF480571B
:1054D000002239464846FDF710FE009502260125B8
:1054E0000396CDE9015469464046FDF711FD00974A
:1054F0000396CDE9015469464846FDF709FD05B01C
:10550000BDE8F08300100240000C0140000801409B
:105510000D4810B50B4901600C49416000214FF462
:1055200080428160C0E9031241618161C161016211
:10553000FDF7EEFD002803D0BDE81040FDF747BBA6
:1055400010BD000000540040B4010020801A060085
:1055500030B58FB024216846FAF79DFF0024264815
:105560000E940D9409940A940B9422490C940160B2
:105570004721C0E901144FF6FF71C0E903144461EB
:105580008461FEF7CFFD08B1FDF721FB0125CDE9D0
:105590000054CDE902540494CDE9054507946946C9
:1055A00015480894FEF76AFC08B1FDF710FB0D944E
:1055B0000DA911480E94FEF77DFB08B1FDF707FB1E
:1055C000CDE909450B94082209A90B480C94FEF774
:1055D00017FD08B1FDF7FBFA022009900A900C2292
:1055E00009A90548FEF70CFD002801D0FDF7EFFAE8
:1055F0000FB030BD002C01400802002010B58CB067
:1056000024216846FAF747FF0024154809944FF013
:1056100080410A94C0E900144FF6FF71C0E90241CD
:10562000046184610120CDE90004CDE90204049401
:10563000CDE905400794694609480894FEF71EFC29
:1056400008B1FDF7C4FA099409A905480A94FEF7C0
:1056500031FB002801D0FDF7BAFA0CB010BD0000F4
:105660005002002010B58EB00024079408940994CD
:105670000A940B941C2168460C94FAF70CFF2348FB
:10568000214901604721C0E9011440F2E731C0E936
:1056900003148461FEF742FB08B1FDF798FA4FF45A
:1056A0008050079007A91948FEF77AFB08B1FDF76B
:1056B0008EFA1648FEF7BDFE08B1FDF788FA0B9486
:1056C0000BA912480C94FEF7F5FA08B1FDF77FFA22
:1056D000602000903220CDE90104002269460B4889
:1056E0000494FEF740FE08B1FDF771FA0422694602
:1056F00006480194FEF737FE08B1FDF768FA034843
:10570000FEF70AFE0EB010BD000400409802002013
:105710000C4810B50A4901604FF4E13141600021A5
:1057200081600C22C160C0E904128161C161FFF790
:1057300037F8002803D0BDE81040FDF748BA10BD87
:1057400000440040E00200200C4810B50A49016006
:105750004FF416514160002181600C22C160C0E904
:1057600004128161C161FFF71BF8002803D0BDE876
:105770001040FDF72CBA10BD00480040280300205F
:10578000FEE700697047000010B53C210B48FEF7AA
:10579000EFFB3C210A48FEF7EBFB084900200968B3
:1057A0004862074909684862FDF7ACFC0549886111
:1057B000FDF7A8FC03491C31886110BD08020020D8
:1057C00050020020A000002070B50D4800240068A1
:1057D00044620C48006844620B4D6C60AC60EC6045
:1057E0002C616C61FDF78EFCA8611C356C60AC60AF
:1057F000EC602C616C61FDF785FCA86170BD000058
:105800000802002050020020A00000202DE9F84FDF
:10581000FDF778FC064650480068406A4F4D4FF44B
:10582000004ACAF1000B6968441A544502DBA4F52A
:10583000803403E05C4501DC04F58034A968214430
:10584000C5E90101A869301A02F050F9444902F093
:1058500057F8444FDFF8109101464FF08B48B0F5F0
:10586000000F2BDB384602F04BF80090204602F088
:1058700025F9414602F044F80446009902F07EF909
:105880003A4902F03DF84946E86002F077F93946B6
:1058900002F036F82861204601F092FF344A354B79
:1058A00001F064FD0022344B01F090FB01F0A0FAFE
:1058B0000146686901F0B0FFC5E905062F48006898
:1058C000406A264D1C356968441A544502DBA4F52C
:1058D000803403E05C4501DC04F58034A968214490
:1058E000C5E90101A869301A02F000F91C4902F06B
:1058F00007F80146B0F5000F2BDB384602F000F840
:105900008246204602F0DAF8414601F0F9FF0446EB
:10591000514602F033F9154901F0F2FF4946E860BB
:1059200002F02CF9394601F0EBFF2861204601F026
:1059300047FF0F4A0F4B01F019FD00220E4B01F0FB
:1059400045FB01F055FA0146686901F065FFC5E9BC
:105950000506BDE8F88F000008020020A000002026
:1059600000007A4400007042BA1A513E0000F04133
:10597000CC3D95418386694000003E4050020020A6
:10598000FEE770477047FDF77BBE30B58FB028212A
:105990006846FAF780FD14210AA8FAF77CFD012178
:1059A0000804CDE900100024029402250491CDE9F9
:1059B00007504FF4E01009906846FDF7D5FF08B195
:1059C00072B6FEE70F20CDE90A054FF48060CDE9FD
:1059D0000C4002210AA80E94FDF7EAFE002801D02F
:1059E00072B6FEE70FB030BD7047000010B503215E
:1059F000074800F031F806480321183000F02CF871
:105A000004484FF47A71026851630068816310BDE5
:105A1000DC0000209802002010B500210548FEF7A8
:105A200037FD04210348FEF733FDBDE8104000F0C8
:105A300093B800009802002010B50C4601460548B6
:105A400000F032F821460348BDE81040183000F05D
:105A50002BB80000DC00002010B5044689B10129F4
:105A600013D0022915D003291CD1A1880122206856
:105A7000FDF743FBA189A0680122BDE81040FDF7B6
:105A80003CBBA1880122206806E0A1880022206892
:105A9000EEE7A18800222068FDF72FFBA1890022F4
:105AA000A068EAE710BD000070B506464FF47A70B2
:105AB000274D0C46814202DD0446B08208E02548AD
:105AC000844202DA0446B08219E0B482002C15DD6B
:105AD0004FF000013046FFF7BFFF306930B10428B6
